{
  "_format": "hh-sol-artifact-1",
  "contractName": "Bookmark",
  "sourceName": "contracts/Bookmark.sol",
  "abi": [
    {
      "anonymous": false,
      "inputs": [
        {
          "indexed": false,
          "internalType": "string",
          "name": "title",
          "type": "string"
        },
        {
          "indexed": false,
          "internalType": "string",
          "name": "url",
          "type": "string"
        }
      ],
      "name": "BookmarkAdded",
      "type": "event"
    },
    {
      "inputs": [
        {
          "internalType": "string",
          "name": "_title",
          "type": "string"
        },
        {
          "internalType": "string",
          "name": "_url",
          "type": "string"
        }
      ],
      "name": "addBookmark",
      "outputs": [],
      "stateMutability": "nonpayable",
      "type": "function"
    },
    {
      "inputs": [
        {
          "internalType": "uint256",
          "name": "",
          "type": "uint256"
        }
      ],
      "name": "bookmarks",
      "outputs": [
        {
          "internalType": "string",
          "name": "title",
          "type": "string"
        },
        {
          "internalType": "string",
          "name": "url",
          "type": "string"
        }
      ],
      "stateMutability": "view",
      "type": "function"
    },
    {
      "inputs": [],
      "name": "getBookmarkCount",
      "outputs": [
        {
          "internalType": "uint256",
          "name": "",
          "type": "uint256"
        }
      ],
      "stateMutability": "view",
      "type": "function"
    },
    {
      "inputs": [],
      "name": "getBookmarks",
      "outputs": [
        {
          "components": [
            {
              "internalType": "string",
              "name": "title",
              "type": "string"
            },
            {
              "internalType": "string",
              "name": "url",
              "type": "string"
            }
          ],
          "internalType": "struct Bookmark.Link[]",
          "name": "",
          "type": "tuple[]"
        }
      ],
      "stateMutability": "view",
      "type": "function"
    }
  ],
  "bytecode": "0x608060405234801561001057600080fd5b50610bf3806100206000396000f3fe608060405234801561001057600080fd5b506004361061004c5760003560e01c80630a0232191461005157806345d9bd151461006f578063b1e542541461008d578063c15a5e41146100a9575b600080fd5b6100596100da565b6040516100669190610471565b60405180910390f35b6100776100e6565b6040516100849190610622565b60405180910390f35b6100a760048036038101906100a2919061078d565b610269565b005b6100c360048036038101906100be9190610831565b610314565b6040516100d19291906108a8565b60405180910390f35b60008080549050905090565b60606000805480602002602001604051908101604052809291908181526020016000905b82821015610260578382906000526020600020906002020160405180604001604052908160008201805461013d9061090e565b80601f01602080910402602001604051908101604052809291908181526020018280546101699061090e565b80156101b65780601f1061018b576101008083540402835291602001916101b6565b820191906000526020600020905b81548152906001019060200180831161019957829003601f168201915b505050505081526020016001820180546101cf9061090e565b80601f01602080910402602001604051908101604052809291908181526020018280546101fb9061090e565b80156102485780601f1061021d57610100808354040283529160200191610248565b820191906000526020600020905b81548152906001019060200180831161022b57829003601f168201915b5050505050815250508152602001906001019061010a565b50505050905090565b6000604051806040016040528084815260200183815250908060018154018082558091505060019003906000526020600020906002020160009091909190915060008201518160000190816102be9190610aeb565b5060208201518160010190816102d49190610aeb565b5050507fb4552d75a583c9c5203b4bc2c963a4d306ed9418571d2500ba1bb0b659d0ad9382826040516103089291906108a8565b60405180910390a15050565b6000818154811061032457600080fd5b90600052602060002090600202016000915090508060000180546103479061090e565b80601f01602080910402602001604051908101604052809291908181526020018280546103739061090e565b80156103c05780601f10610395576101008083540402835291602001916103c0565b820191906000526020600020905b8154815290600101906020018083116103a357829003601f168201915b5050505050908060010180546103d59061090e565b80601f01602080910402602001604051908101604052809291908181526020018280546104019061090e565b801561044e5780601f106104235761010080835404028352916020019161044e565b820191906000526020600020905b81548152906001019060200180831161043157829003601f168201915b5050505050905082565b6000819050919050565b61046b81610458565b82525050565b60006020820190506104866000830184610462565b92915050565b600081519050919050565b600082825260208201905092915050565b6000819050602082019050919050565b600081519050919050565b600082825260208201905092915050565b60005b838110156104f25780820151818401526020810190506104d7565b60008484015250505050565b6000601f19601f8301169050919050565b600061051a826104b8565b61052481856104c3565b93506105348185602086016104d4565b61053d816104fe565b840191505092915050565b60006040830160008301518482036000860152610565828261050f565b9150506020830151848203602086015261057f828261050f565b9150508091505092915050565b60006105988383610548565b905092915050565b6000602082019050919050565b60006105b88261048c565b6105c28185610497565b9350836020820285016105d4856104a8565b8060005b8581101561061057848403895281516105f1858261058c565b94506105fc836105a0565b925060208a019950506001810190506105d8565b50829750879550505050505092915050565b6000602082019050818103600083015261063c81846105ad565b905092915050565b6000604051905090565b600080fd5b600080fd5b600080fd5b600080fd5b7f4e487b7100000000000000000000000000000000000000000000000000000000600052604160045260246000fd5b61069a826104fe565b810181811067ffffffffffffffff821117156106b9576106b8610662565b5b80604052505050565b60006106cc610644565b90506106d88282610691565b919050565b600067ffffffffffffffff8211156106f8576106f7610662565b5b610701826104fe565b9050602081019050919050565b82818337600083830152505050565b600061073061072b846106dd565b6106c2565b90508281526020810184848401111561074c5761074b61065d565b5b61075784828561070e565b509392505050565b600082601f83011261077457610773610658565b5b813561078484826020860161071d565b91505092915050565b600080604083850312156107a4576107a361064e565b5b600083013567ffffffffffffffff8111156107c2576107c1610653565b5b6107ce8582860161075f565b925050602083013567ffffffffffffffff8111156107ef576107ee610653565b5b6107fb8582860161075f565b9150509250929050565b61080e81610458565b811461081957600080fd5b50565b60008135905061082b81610805565b92915050565b6000602082840312156108475761084661064e565b5b60006108558482850161081c565b91505092915050565b600082825260208201905092915050565b600061087a826104b8565b610884818561085e565b93506108948185602086016104d4565b61089d816104fe565b840191505092915050565b600060408201905081810360008301526108c2818561086f565b905081810360208301526108d6818461086f565b90509392505050565b7f4e487b7100000000000000000000000000000000000000000000000000000000600052602260045260246000fd5b6000600282049050600182168061092657607f821691505b602082108103610939576109386108df565b5b50919050565b60008190508160005260206000209050919050565b60006020601f8301049050919050565b600082821b905092915050565b6000600883026109a17fffffffffffffffffffffffffffffffffffffffffffffffffffffffffffffffff82610964565b6109ab8683610964565b95508019841693508086168417925050509392505050565b6000819050919050565b60006109e86109e36109de84610458565b6109c3565b610458565b9050919050565b6000819050919050565b610a02836109cd565b610a16610a0e826109ef565b848454610971565b825550505050565b600090565b610a2b610a1e565b610a368184846109f9565b505050565b5b81811015610a5a57610a4f600082610a23565b600181019050610a3c565b5050565b601f821115610a9f57610a708161093f565b610a7984610954565b81016020851015610a88578190505b610a9c610a9485610954565b830182610a3b565b50505b505050565b600082821c905092915050565b6000610ac260001984600802610aa4565b1980831691505092915050565b6000610adb8383610ab1565b9150826002028217905092915050565b610af4826104b8565b67ffffffffffffffff811115610b0d57610b0c610662565b5b610b17825461090e565b610b22828285610a5e565b600060209050601f831160018114610b555760008415610b43578287015190505b610b4d8582610acf565b865550610bb5565b601f198416610b638661093f565b60005b82811015610b8b57848901518255600182019150602085019450602081019050610b66565b86831015610ba85784890151610ba4601f891682610ab1565b8355505b6001600288020188555050505b50505050505056fea2646970667358221220993356e1a46d8c3a406891f248f310ebe17554119052656b3a9ed3290e205c2964736f6c63430008140033",
  "linkReferences": {},
  "deployedLinkReferences": {}
}